{
  "contractName": "BlindAuction",
  "abi": [
    {
      "constant": true,
      "inputs": [
        {
          "name": "",
          "type": "uint256"
        }
      ],
      "name": "products",
      "outputs": [
        {
          "name": "id",
          "type": "uint256"
        },
        {
          "name": "name",
          "type": "string"
        },
        {
          "name": "desc",
          "type": "string"
        },
        {
          "name": "auctionStartTime",
          "type": "uint256"
        },
        {
          "name": "auctionEndTime",
          "type": "uint256"
        },
        {
          "name": "startPrice",
          "type": "uint256"
        },
        {
          "name": "seller",
          "type": "address"
        },
        {
          "name": "highestBidder",
          "type": "address"
        },
        {
          "name": "highestBidPrice",
          "type": "uint256"
        },
        {
          "name": "totalBidCount",
          "type": "uint256"
        },
        {
          "name": "productStatus",
          "type": "uint8"
        }
      ],
      "payable": false,
      "stateMutability": "view",
      "type": "function",
      "signature": "0x7acc0b20"
    },
    {
      "inputs": [],
      "payable": false,
      "stateMutability": "nonpayable",
      "type": "constructor",
      "signature": "constructor"
    },
    {
      "constant": false,
      "inputs": [
        {
          "name": "name",
          "type": "string"
        },
        {
          "name": "desc",
          "type": "string"
        },
        {
          "name": "auctionStartTime",
          "type": "uint256"
        },
        {
          "name": "auctionEndTime",
          "type": "uint256"
        },
        {
          "name": "startPrice",
          "type": "uint256"
        }
      ],
      "name": "addProduct",
      "outputs": [],
      "payable": false,
      "stateMutability": "nonpayable",
      "type": "function",
      "signature": "0xdc60d3d2"
    },
    {
      "constant": true,
      "inputs": [
        {
          "name": "productId",
          "type": "uint256"
        }
      ],
      "name": "getProductInfo",
      "outputs": [
        {
          "name": "id",
          "type": "uint256"
        },
        {
          "name": "name",
          "type": "string"
        },
        {
          "name": "desc",
          "type": "string"
        },
        {
          "name": "auctionStartTime",
          "type": "uint256"
        },
        {
          "name": "auctionEndTime",
          "type": "uint256"
        },
        {
          "name": "highestBidPrice",
          "type": "uint256"
        },
        {
          "name": "status",
          "type": "uint8"
        },
        {
          "name": "seller",
          "type": "address"
        },
        {
          "name": "highestBidder",
          "type": "address"
        }
      ],
      "payable": false,
      "stateMutability": "view",
      "type": "function",
      "signature": "0x79a85e6c"
    },
    {
      "constant": true,
      "inputs": [],
      "name": "getProductCount",
      "outputs": [
        {
          "name": "",
          "type": "uint256"
        }
      ],
      "payable": false,
      "stateMutability": "view",
      "type": "function",
      "signature": "0x4a348da9"
    },
    {
      "constant": true,
      "inputs": [
        {
          "name": "productId",
          "type": "uint256"
        }
      ],
      "name": "getProductAuctionInfo",
      "outputs": [
        {
          "name": "startPrice",
          "type": "uint256"
        },
        {
          "name": "highestBidder",
          "type": "address"
        },
        {
          "name": "highestBidPrice",
          "type": "uint256"
        },
        {
          "name": "seller",
          "type": "address"
        },
        {
          "name": "totalBidCount",
          "type": "uint256"
        },
        {
          "name": "status",
          "type": "uint8"
        }
      ],
      "payable": false,
      "stateMutability": "view",
      "type": "function",
      "signature": "0xffdfd7c6"
    },
    {
      "constant": false,
      "inputs": [
        {
          "name": "productId",
          "type": "uint256"
        }
      ],
      "name": "bid",
      "outputs": [],
      "payable": true,
      "stateMutability": "payable",
      "type": "function",
      "signature": "0x454a2ab3"
    },
    {
      "constant": false,
      "inputs": [
        {
          "name": "productId",
          "type": "uint256"
        }
      ],
      "name": "getProductTotalBid",
      "outputs": [
        {
          "name": "",
          "type": "uint256"
        }
      ],
      "payable": false,
      "stateMutability": "nonpayable",
      "type": "function",
      "signature": "0x9cfd1401"
    },
    {
      "constant": false,
      "inputs": [
        {
          "name": "productId",
          "type": "uint256"
        }
      ],
      "name": "done",
      "outputs": [],
      "payable": false,
      "stateMutability": "nonpayable",
      "type": "function",
      "signature": "0x58a743c7"
    },
    {
      "constant": false,
      "inputs": [
        {
          "name": "productId",
          "type": "uint256"
        }
      ],
      "name": "checkAuction",
      "outputs": [
        {
          "name": "",
          "type": "bool"
        }
      ],
      "payable": false,
      "stateMutability": "nonpayable",
      "type": "function",
      "signature": "0x20c03948"
    },
    {
      "constant": false,
      "inputs": [
        {
          "name": "productId",
          "type": "uint256"
        }
      ],
      "name": "payCheckedToSeller",
      "outputs": [
        {
          "name": "",
          "type": "bool"
        }
      ],
      "payable": true,
      "stateMutability": "payable",
      "type": "function",
      "signature": "0x8bee57fe"
    },
    {
      "constant": false,
      "inputs": [
        {
          "name": "productId",
          "type": "uint256"
        }
      ],
      "name": "refundCheckedToBuyer",
      "outputs": [
        {
          "name": "",
          "type": "bool"
        }
      ],
      "payable": true,
      "stateMutability": "payable",
      "type": "function",
      "signature": "0xcde7db05"
    }
  ],
  "bytecode": "0x608060405234801561001057600080fd5b5060008081905550611fa6806100276000396000f3006080604052600436106100af576000357c0100000000000000000000000000000000000000000000000000000000900463ffffffff16806320c03948146100b4578063454a2ab3146100f95780634a348da91461011957806358a743c71461014457806379a85e6c146101715780637acc0b201461031a5780638bee57fe146104d15780639cfd140114610509578063cde7db051461054a578063dc60d3d214610582578063ffdfd7c61461064f575b600080fd5b3480156100c057600080fd5b506100df60048036038101908080359060200190929190505050610719565b604051808215151515815260200191505060405180910390f35b61011760048036038101908080359060200190929190505050610a2b565b005b34801561012557600080fd5b5061012e610bda565b6040518082815260200191505060405180910390f35b34801561015057600080fd5b5061016f60048036038101908080359060200190929190505050610be3565b005b34801561017d57600080fd5b5061019c60048036038101908080359060200190929190505050610d5b565b604051808a815260200180602001806020018981526020018881526020018781526020018660038111156101cc57fe5b60ff1681526020018573ffffffffffffffffffffffffffffffffffffffff1673ffffffffffffffffffffffffffffffffffffffff1681526020018473ffffffffffffffffffffffffffffffffffffffff1673ffffffffffffffffffffffffffffffffffffffff16815260200183810383528b818151815260200191508051906020019080838360005b83811015610270578082015181840152602081019050610255565b50505050905090810190601f16801561029d5780820380516001836020036101000a031916815260200191505b5083810382528a818151815260200191508051906020019080838360005b838110156102d65780820151818401526020810190506102bb565b50505050905090810190601f1680156103035780820380516001836020036101000a031916815260200191505b509b50505050505050505050505060405180910390f35b34801561032657600080fd5b50610345600480360381019080803590602001909291905050506110bb565b604051808c815260200180602001806020018b81526020018a81526020018981526020018873ffffffffffffffffffffffffffffffffffffffff1673ffffffffffffffffffffffffffffffffffffffff1681526020018773ffffffffffffffffffffffffffffffffffffffff1673ffffffffffffffffffffffffffffffffffffffff1681526020018681526020018581526020018460038111156103e557fe5b60ff16815260200183810383528d818151815260200191508051906020019080838360005b8381101561042557808201518184015260208101905061040a565b50505050905090810190601f1680156104525780820380516001836020036101000a031916815260200191505b5083810382528c818151815260200191508051906020019080838360005b8381101561048b578082015181840152602081019050610470565b50505050905090810190601f1680156104b85780820380516001836020036101000a031916815260200191505b509d505050505050505050505050505060405180910390f35b6104ef60048036038101908080359060200190929190505050611292565b604051808215151515815260200191505060405180910390f35b34801561051557600080fd5b50610534600480360381019080803590602001909291905050506115ce565b6040518082815260200191505060405180910390f35b610568600480360381019080803590602001909291905050506115ee565b604051808215151515815260200191505060405180910390f35b34801561058e57600080fd5b5061064d600480360381019080803590602001908201803590602001908080601f0160208091040260200160405190810160405280939291908181526020018383808284378201915050505050509192919290803590602001908201803590602001908080601f0160208091040260200160405190810160405280939291908181526020018383808284378201915050505050509192919290803590602001909291908035906020019092919080359060200190929190505050611922565b005b34801561065b57600080fd5b5061067a60048036038101908080359060200190929190505050611b80565b604051808781526020018673ffffffffffffffffffffffffffffffffffffffff1673ffffffffffffffffffffffffffffffffffffffff1681526020018581526020018473ffffffffffffffffffffffffffffffffffffffff1673ffffffffffffffffffffffffffffffffffffffff16815260200183815260200182600381111561070057fe5b60ff168152602001965050505050505060405180910390f35b6000806001600084815260200190815260200160002090506001600381111561073e57fe5b81600a0160009054906101000a900460ff16600381111561075b57fe5b1415156107d0576040517f08c379a00000000000000000000000000000000000000000000000000000000081526004018080602001828103825260048152602001807f737373730000000000000000000000000000000000000000000000000000000081525060200191505060405180910390fd5b3373ffffffffffffffffffffffffffffffffffffffff168160070160009054906101000a900473ffffffffffffffffffffffffffffffffffffffff1673ffffffffffffffffffffffffffffffffffffffff1614151515610898576040517f08c379a000000000000000000000000000000000000000000000000000000000815260040180806020018281038252600b8152602001807f70726f647563747373737300000000000000000000000000000000000000000081525060200191505060405180910390fd5b3373ffffffffffffffffffffffffffffffffffffffff168160060160009054906101000a900473ffffffffffffffffffffffffffffffffffffffff1673ffffffffffffffffffffffffffffffffffffffff1614151515610960576040517f08c379a00000000000000000000000000000000000000000000000000000000081526004018080602001828103825260088152602001807f70726f647563747300000000000000000000000000000000000000000000000081525060200191505060405180910390fd5b60008160090154141561099c57600381600a0160006101000a81548160ff0219169083600381111561098e57fe5b021790555060009150610a25565b336002600085815260200190815260200160002060006101000a81548173ffffffffffffffffffffffffffffffffffffffff021916908373ffffffffffffffffffffffffffffffffffffffff1602179055506000600360008581526020019081526020016000208190555060006004600085815260200190815260200160002081905550600191505b50919050565b600060016000838152602001908152602001600020905080600301544210151515610a5557600080fd5b80600401544211151515610a6857600080fd5b60006003811115610a7557fe5b81600a0160009054906101000a900460ff166003811115610a9257fe5b141515610a9e57600080fd5b80600501543410151515610ab157600080fd5b806008015434111515610ac357600080fd5b60008160070160009054906101000a900473ffffffffffffffffffffffffffffffffffffffff1673ffffffffffffffffffffffffffffffffffffffff16141515610b77578060070160009054906101000a900473ffffffffffffffffffffffffffffffffffffffff1673ffffffffffffffffffffffffffffffffffffffff166108fc82600801549081150290604051600060405180830381858888f19350505050158015610b75573d6000803e3d6000fd5b505b348160080181905550338160070160006101000a81548173ffffffffffffffffffffffffffffffffffffffff021916908373ffffffffffffffffffffffffffffffffffffffff160217905550600181600901600082825401925050819055505050565b60008054905090565b60006003811115610bf057fe5b60016000838152602001908152602001600020600a0160009054906101000a900460ff166003811115610c1f57fe5b141515610c94576040517f08c379a00000000000000000000000000000000000000000000000000000000081526004018080602001828103825260158152602001807fe59586e59381e68b8de58d96e4b8bae5bc80e5a78b000000000000000000000081525060200191505060405180910390fd5b600160008281526020019081526020016000206003015442111515610d21576040517f08c379a000000000000000000000000000000000000000000000000000000000815260040180806020018281038252600c8152602001807fe697b6e997b4e69caae588b0000000000000000000000000000000000000000081525060200191505060405180910390fd5b6001806000838152602001908152602001600020600a0160006101000a81548160ff02191690836003811115610d5357fe5b021790555050565b6000606080600080600080600080610d71611e43565b6000548b11151515610deb576040517f08c379a000000000000000000000000000000000000000000000000000000000815260040180806020018281038252600e8152602001807f6d757374206c657373207468616e00000000000000000000000000000000000081525060200191505060405180910390fd5b600160008c8152602001908152602001600020610160604051908101604052908160008201548152602001600182018054600181600116156101000203166002900480601f016020809104026020016040519081016040528092919081815260200182805460018160011615610100020316600290048015610eae5780601f10610e8357610100808354040283529160200191610eae565b820191906000526020600020905b815481529060010190602001808311610e9157829003601f168201915b50505050508152602001600282018054600181600116156101000203166002900480601f016020809104026020016040519081016040528092919081815260200182805460018160011615610100020316600290048015610f505780601f10610f2557610100808354040283529160200191610f50565b820191906000526020600020905b815481529060010190602001808311610f3357829003601f168201915b505050505081526020016003820154815260200160048201548152602001600582015481526020016006820160009054906101000a900473ffffffffffffffffffffffffffffffffffffffff1673ffffffffffffffffffffffffffffffffffffffff1673ffffffffffffffffffffffffffffffffffffffff1681526020016007820160009054906101000a900473ffffffffffffffffffffffffffffffffffffffff1673ffffffffffffffffffffffffffffffffffffffff1673ffffffffffffffffffffffffffffffffffffffff1681526020016008820154815260200160098201548152602001600a820160009054906101000a900460ff16600381111561105557fe5b600381111561106057fe5b815250509050806000015181602001518260400151836060015184608001518561010001518661014001518760c001518860e00151879750869650995099509950995099509950995099509950509193959799909294969850565b6001602052806000526040600020600091509050806000015490806001018054600181600116156101000203166002900480601f01602080910402602001604051908101604052809291908181526020018280546001816001161561010002031660029004801561116d5780601f106111425761010080835404028352916020019161116d565b820191906000526020600020905b81548152906001019060200180831161115057829003601f168201915b505050505090806002018054600181600116156101000203166002900480601f01602080910402602001604051908101604052809291908181526020018280546001816001161561010002031660029004801561120b5780601f106111e05761010080835404028352916020019161120b565b820191906000526020600020905b8154815290600101906020018083116111ee57829003601f168201915b5050505050908060030154908060040154908060050154908060060160009054906101000a900473ffffffffffffffffffffffffffffffffffffffff16908060070160009054906101000a900473ffffffffffffffffffffffffffffffffffffffff169080600801549080600901549080600a0160009054906101000a900460ff1690508b565b60003373ffffffffffffffffffffffffffffffffffffffff166001600084815260200190815260200160002060060160009054906101000a900473ffffffffffffffffffffffffffffffffffffffff1673ffffffffffffffffffffffffffffffffffffffff16148061136557503373ffffffffffffffffffffffffffffffffffffffff166001600084815260200190815260200160002060070160009054906101000a900473ffffffffffffffffffffffffffffffffffffffff1673ffffffffffffffffffffffffffffffffffffffff16145b806113ce57503373ffffffffffffffffffffffffffffffffffffffff166002600084815260200190815260200160002060009054906101000a900473ffffffffffffffffffffffffffffffffffffffff1673ffffffffffffffffffffffffffffffffffffffff16145b801561143557506006600083815260200190815260200160002060003373ffffffffffffffffffffffffffffffffffffffff1673ffffffffffffffffffffffffffffffffffffffff16815260200190815260200160002060009054906101000a900460ff16155b156114ca5760016006600084815260200190815260200160002060003373ffffffffffffffffffffffffffffffffffffffff1673ffffffffffffffffffffffffffffffffffffffff16815260200190815260200160002060006101000a81548160ff021916908315150217905550600160046000848152602001908152602001600020600082825401925050819055506114d3565b600090506115c9565b600260046000848152602001908152602001600020541015156115c4576001600083815260200190815260200160002060060160009054906101000a900473ffffffffffffffffffffffffffffffffffffffff1673ffffffffffffffffffffffffffffffffffffffff166108fc60016000858152602001908152602001600020600801549081150290604051600060405180830381858888f19350505050158015611582573d6000803e3d6000fd5b50600260016000848152602001908152602001600020600a0160006101000a81548160ff021916908360038111156115b657fe5b0217905550600190506115c9565b600190505b919050565b600060016000838152602001908152602001600020600901549050919050565b60003373ffffffffffffffffffffffffffffffffffffffff166001600084815260200190815260200160002060060160009054906101000a900473ffffffffffffffffffffffffffffffffffffffff1673ffffffffffffffffffffffffffffffffffffffff1614806116c157503373ffffffffffffffffffffffffffffffffffffffff166001600084815260200190815260200160002060070160009054906101000a900473ffffffffffffffffffffffffffffffffffffffff1673ffffffffffffffffffffffffffffffffffffffff16145b8061172a57503373ffffffffffffffffffffffffffffffffffffffff166002600084815260200190815260200160002060009054906101000a900473ffffffffffffffffffffffffffffffffffffffff1673ffffffffffffffffffffffffffffffffffffffff16145b801561179157506005600083815260200190815260200160002060003373ffffffffffffffffffffffffffffffffffffffff1673ffffffffffffffffffffffffffffffffffffffff16815260200190815260200160002060009054906101000a900460ff16155b156118265760016005600084815260200190815260200160002060003373ffffffffffffffffffffffffffffffffffffffff1673ffffffffffffffffffffffffffffffffffffffff16815260200190815260200160002060006101000a81548160ff0219169083151502179055506001600360008481526020019081526020016000206000828254019250508190555061182f565b6000905061191d565b60026003600084815260200190815260200160002054101515611918576001600083815260200190815260200160002060070160009054906101000a900473ffffffffffffffffffffffffffffffffffffffff1673ffffffffffffffffffffffffffffffffffffffff166108fc60016000858152602001908152602001600020600801549081150290604051600060405180830381858888f193505050501580156118de573d6000803e3d6000fd5b50600360016000848152602001908152602001600020600a0160006101000a81548160ff0219169083600381111561191257fe5b02179055505b600190505b919050565b8183101515611999576040517f08c379a000000000000000000000000000000000000000000000000000000000815260040180806020018281038252600f8152602001807fe697b6e997b4e4b88de59088e6b395000000000000000000000000000000000081525060200191505060405180910390fd5b600160008082825401925050819055506101606040519081016040528060005481526020018681526020018581526020018481526020018381526020018281526020013373ffffffffffffffffffffffffffffffffffffffff168152602001600073ffffffffffffffffffffffffffffffffffffffff1681526020018281526020016000815260200160006003811115611a2f57fe5b8152506001600080548152602001908152602001600020600082015181600001556020820151816001019080519060200190611a6c929190611ed5565b506040820151816002019080519060200190611a89929190611ed5565b50606082015181600301556080820151816004015560a0820151816005015560c08201518160060160006101000a81548173ffffffffffffffffffffffffffffffffffffffff021916908373ffffffffffffffffffffffffffffffffffffffff16021790555060e08201518160070160006101000a81548173ffffffffffffffffffffffffffffffffffffffff021916908373ffffffffffffffffffffffffffffffffffffffff1602179055506101008201518160080155610120820151816009015561014082015181600a0160006101000a81548160ff02191690836003811115611b7157fe5b02179055509050505050505050565b600080600080600080611b91611e43565b60016000898152602001908152602001600020610160604051908101604052908160008201548152602001600182018054600181600116156101000203166002900480601f016020809104026020016040519081016040528092919081815260200182805460018160011615610100020316600290048015611c545780601f10611c2957610100808354040283529160200191611c54565b820191906000526020600020905b815481529060010190602001808311611c3757829003601f168201915b50505050508152602001600282018054600181600116156101000203166002900480601f016020809104026020016040519081016040528092919081815260200182805460018160011615610100020316600290048015611cf65780601f10611ccb57610100808354040283529160200191611cf6565b820191906000526020600020905b815481529060010190602001808311611cd957829003601f168201915b505050505081526020016003820154815260200160048201548152602001600582015481526020016006820160009054906101000a900473ffffffffffffffffffffffffffffffffffffffff1673ffffffffffffffffffffffffffffffffffffffff1673ffffffffffffffffffffffffffffffffffffffff1681526020016007820160009054906101000a900473ffffffffffffffffffffffffffffffffffffffff1673ffffffffffffffffffffffffffffffffffffffff1673ffffffffffffffffffffffffffffffffffffffff1681526020016008820154815260200160098201548152602001600a820160009054906101000a900460ff166003811115611dfb57fe5b6003811115611e0657fe5b8152505090508060a001518160e001518261010001518360c001518461012001518561014001519650965096509650965096505091939550919395565b61016060405190810160405280600081526020016060815260200160608152602001600081526020016000815260200160008152602001600073ffffffffffffffffffffffffffffffffffffffff168152602001600073ffffffffffffffffffffffffffffffffffffffff168152602001600081526020016000815260200160006003811115611ecf57fe5b81525090565b828054600181600116156101000203166002900490600052602060002090601f016020900481019282601f10611f1657805160ff1916838001178555611f44565b82800160010185558215611f44579182015b82811115611f43578251825591602001919060010190611f28565b5b509050611f519190611f55565b5090565b611f7791905b80821115611f73576000816000905550600101611f5b565b5090565b905600a165627a7a72305820436c89c4f0f6c0458ae1a89bb5f8f7784d32bccb4fd06864038f6b25236755360029",
  "source": "pragma solidity ^0.4.24;\r\n\r\n\r\ncontract BlindAuction {\r\n    // \r\n    enum ProductStatus {Open,Deal, Sold, UnSold} \r\n\r\n    struct Bid {\r\n        address buyer;\r\n        uint productId;\r\n        uint value; // 公开的价格, 相当于订金, 该价格要大于实际竞拍的价格，否则此次竞拍不成功\r\n        bool realed; // 是否退回了订金\r\n    }\r\n\r\n\r\n    uint productIndex;\r\n    struct Product {\r\n        uint id;\r\n        string name;\r\n        string desc;\r\n        uint auctionStartTime;\r\n        uint auctionEndTime;\r\n        uint startPrice;\r\n        address seller;\r\n\r\n        address highestBidder; // 最高出价人\r\n        uint highestBidPrice; // 最高出价\r\n        uint totalBidCount;\r\n        ProductStatus productStatus;\r\n\r\n    }\r\n\r\n    mapping(uint => Product) public products;\r\n\r\n    mapping(uint => address) mediators;\r\n\r\n    mapping(uint => uint) refundCheckedCount;\r\n\r\n    mapping(uint =>uint) payCheckedCount;\r\n\r\n    mapping(uint => mapping(address => bool)) refundChecked;\r\n    mapping(uint => mapping(address => bool)) payChecked;\r\n    constructor() public {\r\n        productIndex = 0;\r\n    }\r\n    function addProduct(string name, string desc, uint auctionStartTime, uint auctionEndTime, uint startPrice) public {\r\n        require(auctionStartTime < auctionEndTime, \"时间不合法\");\r\n        productIndex += 1;\r\n        products[productIndex] = Product(productIndex, name, desc, auctionStartTime, auctionEndTime, startPrice, msg.sender, 0, startPrice, 0, ProductStatus.Open);\r\n        //products[productIndex] = product;\r\n    }\r\n\r\n    function getProductInfo(uint productId) view  public returns (uint id, string name, string desc, uint auctionStartTime, uint auctionEndTime, uint highestBidPrice, ProductStatus status, address seller, address highestBidder) {\r\n        require(productId <= productIndex, \"must less than\");\r\n        Product memory product = products[productId];\r\n        return (product.id, product.name, product.desc, product.auctionStartTime, product.auctionEndTime, product.highestBidPrice, product.productStatus, product.seller, product.highestBidder);\r\n    }\r\n    function getProductCount() view public returns(uint) {\r\n        return productIndex;\r\n    }\r\n    function getProductAuctionInfo(uint productId) view public returns (uint startPrice, address highestBidder, uint highestBidPrice, address seller, uint totalBidCount, ProductStatus status) {\r\n        Product memory product = products[productId];\r\n        \r\n        return (product.startPrice, product.highestBidder, product.highestBidPrice, product.seller, product.totalBidCount, product.productStatus);\r\n    }\r\n    // bid，实际竞拍价格加密后的数据\r\n    function bid(uint productId) payable public {\r\n        Product storage p = products[productId];\r\n        require(now >= p.auctionStartTime);\r\n        require(now <= p.auctionEndTime);\r\n        require(p.productStatus == ProductStatus.Open);\r\n        require(msg.value >= p.startPrice);\r\n        require(msg.value > p.highestBidPrice);\r\n        \r\n        // 保证两次出价的金额不会相同\r\n        if (p.highestBidder != 0) {\r\n            p.highestBidder.transfer(p.highestBidPrice);\r\n        }\r\n        p.highestBidPrice = msg.value;\r\n        p.highestBidder = msg.sender;\r\n        p.totalBidCount += 1;\r\n    }\r\n\r\n    function getProductTotalBid(uint productId) returns (uint) {\r\n        return products[productId].totalBidCount;\r\n    }\r\n\r\n    // amount: 实际的出标价格\r\n    // secret: 用来加密实际出标价格的秘钥\r\n    /*function revealBid(uint productId, uint amount, string secret) payable public{\r\n        var product = products[productId];\r\n\r\n        //require(now > product.auctionEndTime);\r\n\r\n        bytes32 sealedBid = keccak256(amount, secret);\r\n        Bid memory bid = product.bids[msg.sender][sealedBid];\r\n\r\n        // 检查是否会有这笔交易\r\n        require(bid.buyer > 0);\r\n\r\n        // 检查是否已经退款\r\n        require(bid.realed == false);\r\n        uint refund; // 退款金额\r\n        if(product.productStatus == ProductStatus.Sold || product.productStatus == ProductStatus.UnSold){\r\n            // 如果在公告出价阶段买家忘记了公告出价，导致错过了商品卖给了其他人，则全额退款\r\n            refund = bid.value;\r\n        } else if(amount > bid.value) {\r\n            // 如果订金小于实际竞拍价格，则该次竞拍失败，退回订金  \r\n            refund = bid.value;\r\n        } else {\r\n            if(product.highestBidder == 0) {\r\n                product.highestBidder = msg.sender;\r\n                product.highestBidPrice = amount;\r\n                product.secondHighestBidPrice = product.startPrice;\r\n                refund = bid.value - amount;\r\n            } else {\r\n                if(amount > product.highestBidPrice) {\r\n                    product.secondHighestBidPrice = product.highestBidPrice;\r\n                    // 将钱退回给原来出价最高的人\r\n                    product.highestBidder.transfer(product.highestBidPrice);\r\n\r\n                    product.highestBidPrice = amount;\r\n                    product.highestBidder = msg.sender;\r\n                    refund = bid.value - amount;\r\n                } else if(amount > product.secondHighestBidPrice) {\r\n                    product.secondHighestBidPrice = amount;\r\n                    refund = bid.value;\r\n                } else {\r\n                    refund = bid.value;\r\n                }\r\n            }\r\n        }\r\n        if(refund > 0) {\r\n            msg.sender.transfer(refund);\r\n            product.bids[msg.sender][sealedBid].realed = true;\r\n        }\r\n    }*/\r\n\r\n    // 成交函数，卖主可以在拍卖结束后成交，或者在拍卖过程中觉得价格够高了成交\r\n    function done(uint productId) public {\r\n        require(products[productId].productStatus == ProductStatus.Open, \"商品拍卖为开始\");\r\n        require(now > products[productId].auctionStartTime, \"时间未到\");\r\n        products[productId].productStatus = ProductStatus.Deal;\r\n\r\n    }\r\n\r\n    // 生成Escrow合同\r\n    function checkAuction(uint productId) public returns(bool) {\r\n        Product storage product = products[productId];\r\n        //require(now > product.auctionEndTime);\r\n        require(product.productStatus == ProductStatus.Deal, \"ssss\");\r\n\r\n        // 由第三方提供仲裁\r\n        require(product.highestBidder != msg.sender, \"productssss\");\r\n        require(product.seller != msg.sender, \"products\");\r\n\r\n        if(product.totalBidCount == 0) {\r\n            product.productStatus = ProductStatus.UnSold;\r\n            return false;\r\n        } else {\r\n            mediators[productId] = msg.sender;\r\n            refundCheckedCount[productId] = 0;\r\n            payCheckedCount[productId] = 0;\r\n            return true;\r\n        }\r\n    }\r\n\r\n    \r\n\r\n    // 确认付款\r\n    function payCheckedToSeller(uint productId)  payable  public returns(bool) {\r\n       if ((products[productId].seller == msg.sender || products[productId].highestBidder == msg.sender || mediators[productId] == msg.sender) && !payChecked[productId][msg.sender]) {\r\n           payChecked[productId][msg.sender] = true;\r\n           payCheckedCount[productId] += 1;\r\n       } else {\r\n           return false;\r\n       }\r\n        if(payCheckedCount[productId] >= 2) {\r\n            products[productId].seller.transfer(products[productId].highestBidPrice);\r\n            products[productId].productStatus = ProductStatus.Sold;\r\n            return true;\r\n        }\r\n        return true;\r\n    }\r\n\r\n    // 确认退款\r\n    function refundCheckedToBuyer(uint productId) payable public returns(bool) {\r\n        if ((products[productId].seller == msg.sender || products[productId].highestBidder == msg.sender || mediators[productId] == msg.sender) && !refundChecked[productId][msg.sender]) {\r\n           refundChecked[productId][msg.sender] = true;\r\n           refundCheckedCount[productId] += 1;\r\n        } else {\r\n            return false;\r\n        }\r\n        if(refundCheckedCount[productId] >= 2) {\r\n            products[productId].highestBidder.transfer(products[productId].highestBidPrice);\r\n            products[productId].productStatus = ProductStatus.UnSold;\r\n        }\r\n        return true;\r\n    }\r\n\r\n}",
  "sourcePath": "D:/Learning/blockchain/code/project1/contracts/BlindAuction.sol",
  "compiler": {
    "name": "solc",
    "version": "0.4.24+commit.e67f0147.Emscripten.clang"
  },
  "schemaVersion": "3.0.0",
  "updatedAt": "2018-12-29T10:54:03.565Z",
  "devdoc": {
    "methods": {}
  },
  "userdoc": {
    "methods": {}
  }
}