{
  "contractName": "Escrow",
  "abi": [
    {
      "inputs": [
        {
          "name": "_productId",
          "type": "uint256"
        },
        {
          "name": "_seller",
          "type": "address"
        },
        {
          "name": "_buyer",
          "type": "address"
        },
        {
          "name": "_arbiter",
          "type": "address"
        }
      ],
      "payable": true,
      "stateMutability": "payable",
      "type": "constructor"
    },
    {
      "constant": true,
      "inputs": [],
      "name": "getEscrowInfo",
      "outputs": [
        {
          "name": "productId",
          "type": "uint256"
        },
        {
          "name": "seller",
          "type": "address"
        },
        {
          "name": "buyer",
          "type": "address"
        },
        {
          "name": "arbiter",
          "type": "address"
        },
        {
          "name": "finalAmount",
          "type": "uint256"
        },
        {
          "name": "refundCheckedCount",
          "type": "uint256"
        },
        {
          "name": "payCheckedCount",
          "type": "uint256"
        },
        {
          "name": "isFinish",
          "type": "bool"
        }
      ],
      "payable": false,
      "stateMutability": "view",
      "type": "function"
    },
    {
      "constant": false,
      "inputs": [
        {
          "name": "caller",
          "type": "address"
        }
      ],
      "name": "refundCheckedToBuyer",
      "outputs": [
        {
          "name": "",
          "type": "bool"
        }
      ],
      "payable": true,
      "stateMutability": "payable",
      "type": "function"
    },
    {
      "constant": false,
      "inputs": [
        {
          "name": "caller",
          "type": "address"
        }
      ],
      "name": "payCheckedToSeller",
      "outputs": [
        {
          "name": "",
          "type": "bool"
        }
      ],
      "payable": true,
      "stateMutability": "payable",
      "type": "function"
    }
  ],
  "bytecode": "0x608060405260405160808061088a833981018060405281019080805190602001909291908051906020019092919080519060200190929190805190602001909291905050508360008190555082600160006101000a81548173ffffffffffffffffffffffffffffffffffffffff021916908373ffffffffffffffffffffffffffffffffffffffff16021790555081600260006101000a81548173ffffffffffffffffffffffffffffffffffffffff021916908373ffffffffffffffffffffffffffffffffffffffff16021790555080600360006101000a81548173ffffffffffffffffffffffffffffffffffffffff021916908373ffffffffffffffffffffffffffffffffffffffff1602179055503460048190555050505050610762806101286000396000f300608060405260043610610057576000357c0100000000000000000000000000000000000000000000000000000000900463ffffffff16806309145d7d1461005c578063ae62512214610140578063b963a1331461018e575b600080fd5b34801561006857600080fd5b506100716101dc565b604051808981526020018873ffffffffffffffffffffffffffffffffffffffff1673ffffffffffffffffffffffffffffffffffffffff1681526020018773ffffffffffffffffffffffffffffffffffffffff1673ffffffffffffffffffffffffffffffffffffffff1681526020018673ffffffffffffffffffffffffffffffffffffffff1673ffffffffffffffffffffffffffffffffffffffff168152602001858152602001848152602001838152602001821515151581526020019850505050505050505060405180910390f35b610174600480360381019080803573ffffffffffffffffffffffffffffffffffffffff16906020019092919050505061020a565b604051808215151515815260200191505060405180910390f35b6101c2600480360381019080803573ffffffffffffffffffffffffffffffffffffffff1690602001909291905050506104a0565b604051808215151515815260200191505060405180910390f35b6000806000806000806000808787878787878787975097509750975097509750975097509091929394959697565b6000600960009054906101000a900460ff1615151561022857600080fd5b600160009054906101000a900473ffffffffffffffffffffffffffffffffffffffff1673ffffffffffffffffffffffffffffffffffffffff168273ffffffffffffffffffffffffffffffffffffffff1614806102d15750600260009054906101000a900473ffffffffffffffffffffffffffffffffffffffff1673ffffffffffffffffffffffffffffffffffffffff168273ffffffffffffffffffffffffffffffffffffffff16145b806103295750600360009054906101000a900473ffffffffffffffffffffffffffffffffffffffff1673ffffffffffffffffffffffffffffffffffffffff168273ffffffffffffffffffffffffffffffffffffffff16145b801561037f5750600760008373ffffffffffffffffffffffffffffffffffffffff1673ffffffffffffffffffffffffffffffffffffffff16815260200190815260200160002060009054906101000a900460ff16155b156103f2576001600760008473ffffffffffffffffffffffffffffffffffffffff1673ffffffffffffffffffffffffffffffffffffffff16815260200190815260200160002060006101000a81548160ff02191690831515021790555060016008600082825401925050819055506103fb565b6000905061049b565b600260085410151561049657600160009054906101000a900473ffffffffffffffffffffffffffffffffffffffff1673ffffffffffffffffffffffffffffffffffffffff166108fc6004549081150290604051600060405180830381858888f19350505050158015610471573d6000803e3d6000fd5b506001600960006101000a81548160ff0219169083151502179055506001905061049b565b600090505b919050565b6000600960009054906101000a900460ff161515156104be57600080fd5b600160009054906101000a900473ffffffffffffffffffffffffffffffffffffffff1673ffffffffffffffffffffffffffffffffffffffff168273ffffffffffffffffffffffffffffffffffffffff1614806105675750600260009054906101000a900473ffffffffffffffffffffffffffffffffffffffff1673ffffffffffffffffffffffffffffffffffffffff168273ffffffffffffffffffffffffffffffffffffffff16145b806105bf5750600360009054906101000a900473ffffffffffffffffffffffffffffffffffffffff1673ffffffffffffffffffffffffffffffffffffffff168273ffffffffffffffffffffffffffffffffffffffff16145b80156106155750600560008373ffffffffffffffffffffffffffffffffffffffff1673ffffffffffffffffffffffffffffffffffffffff16815260200190815260200160002060009054906101000a900460ff16155b15610688576001600560008473ffffffffffffffffffffffffffffffffffffffff1673ffffffffffffffffffffffffffffffffffffffff16815260200190815260200160002060006101000a81548160ff0219169083151502179055506001600660008282540192505081905550610691565b60009050610731565b600260065410151561072c57600260009054906101000a900473ffffffffffffffffffffffffffffffffffffffff1673ffffffffffffffffffffffffffffffffffffffff166108fc6004549081150290604051600060405180830381858888f19350505050158015610707573d6000803e3d6000fd5b506001600960006101000a81548160ff02191690831515021790555060019050610731565b600090505b9190505600a165627a7a7230582024390c4e34a46ab40441ae2723987ff62b3213fc5c8b6fa710118e5057aa53ce0029",
  "source": "pragma solidity ^0.4.24;\r\ncontract Escrow {\r\n    uint productId;\r\n    address seller;\r\n    address buyer;\r\n    address arbiter;\r\n    uint finalAmount;\r\n\r\n    mapping(address => bool) refundChecked;\r\n    uint refundCheckedCount;\r\n\r\n    mapping(address => bool) payChecked;\r\n    uint payCheckedCount;\r\n\r\n    bool isFinish; // 该仲裁是否结束\r\n    constructor(uint _productId, address _seller, address _buyer, address _arbiter) payable public {\r\n        productId = _productId;\r\n        seller = _seller;\r\n        buyer = _buyer;\r\n        arbiter = _arbiter;\r\n        finalAmount = msg.value;\r\n    }\r\n\r\n    function getEscrowInfo() view public returns (uint productId, address seller, address buyer, address arbiter, uint finalAmount, uint refundCheckedCount, uint payCheckedCount, bool isFinish) {\r\n        return (productId, seller, buyer, arbiter, finalAmount, refundCheckedCount, payCheckedCount, isFinish);\r\n    }\r\n\r\n    function refundCheckedToBuyer(address caller) payable public  returns (bool){\r\n        require(!isFinish);\r\n        if((caller == seller || caller == buyer || caller == arbiter) && !refundChecked[caller]) {\r\n            refundChecked[caller] = true;\r\n            refundCheckedCount +=1;\r\n        } else {\r\n            return false;\r\n        }\r\n\r\n        if(refundCheckedCount >= 2) {\r\n            buyer.transfer(finalAmount);\r\n            isFinish = true;\r\n            return true;\r\n        }\r\n        return false;\r\n    }\r\n\r\n    function payCheckedToSeller(address caller) payable public returns (bool){\r\n        require(!isFinish);\r\n        if((caller == seller || caller == buyer || caller == arbiter) && !payChecked[caller]) {\r\n            payChecked[caller] = true;\r\n            payCheckedCount +=1;\r\n        } else {\r\n            return false;\r\n        }\r\n\r\n        if(payCheckedCount >= 2) {\r\n            seller.transfer(finalAmount);\r\n            isFinish = true;\r\n            return true;\r\n        }\r\n        return false;\r\n    }\r\n}",
  "sourcePath": "D:/Learning/blockchain/code/project1/contracts/Escrow.sol",
  "compiler": {
    "name": "solc",
    "version": "0.4.24+commit.e67f0147.Emscripten.clang"
  },
  "schemaVersion": "3.0.0",
  "updatedAt": "2018-12-29T10:54:03.537Z",
  "devdoc": {
    "methods": {}
  },
  "userdoc": {
    "methods": {}
  }
}